:020000040000FA
:020000000528D1
:040002000034003492
:080008006F28000083160313AA
:100010000030880001308600831603130113831219
:1000200003130B168B178B10831203138801A40183
:10003000A501A601A701A801A901AA01AB01AC0174
:10004000AD01AE01AF01B001A30154207620033011
:10005000A100DE2008307320DE200C307320A10BBD
:100060002928DE20DE20DE20DE209B20F428F93047
:10007000F0000000F00B39280800F1003720F10BE8
:100080003E2808000815372008110800F500F0394F
:100090008800F41888144220F50E7508F03988009D
:1000A000F41888144220080064303D20F030F40039
:1000B00030308800422005303D2042203720422049
:1000C00008124220283046200830462001304620C1
:1000D00006304620803046200C30462008000900BB
:1000E000F41446200800F4104620080080307320E5
:1000F00057307020653070206C3070206330702075
:100100006F3070206D30702065307020203070208E
:10011000743070206F307020C030732044307020F5
:100120006930702076307020693070206F30702018
:100130006E3070200800013073200F3073204E3075
:100140007020753070206D30702062307020653006
:100150007020723070202030702031307020C0301C
:100160007320B32008002508303E70202608303E5A
:1001700070202708303E70202808303E7020290863
:10018000303E70202A08303E70202E3070202B0820
:10019000303E70202C08303E70202D08303E7020FC
:1001A0002E08303E70202F08303E70203008303E40
:1001B000702008002408C03E73200800FA30EC20AC
:1001C000FA30EC2008001430EC2008000530EC2058
:1001D00008000130EC200800A000C730A200A20BEC
:0C01E000EF28A00BED2808006300F428B5
:02400E00313748
:00000001FF
