:020000040000FA
:020000000528D1
:040002000034003492
:080008008A280000831603138F
:100010000030880001308600831603130113831219
:10002000031330309000831603130C108312031354
:100030000C10831203138801A401A501A601A701D6
:10004000A801A901AA01AB01AC01AD01AE01AF014C
:10005000B001B101B201B301B401B501B601B701FC
:10006000B801B901BA01BB01BC01A301BD01BE01C8
:10007000BF016F20B7200330A10095210830B420C4
:1000800095210C30B420A10B3D2895219521952177
:100090009521DC20831203130B160B178B178B1083
:1000A0005028B429F930F0000000F00B5428080063
:1000B000F1005220F10B59280800081552200811B0
:1000C0000800F500F0398800F41888145D20F50E5A
:1000D0007508F0398800F41888145D200800643031
:1000E0005820F030F400303088005D200530582072
:1000F0005D2052205D2008125D20283061200830EC
:1001000061200130612006306120803061200C3098
:1001100061200800A2008B1092210618AF289521BB
:1001200006189328A02881003F02031D6621992804
:100130006F2181003F02031D7821AF288521AF2860
:10014000A40A063024020319A40A0D30240203195C
:10015000F52081003F02031D7821AF288521220868
:100160000900F41461200800F410612008008030B8
:10017000B4205730B1206530B1206C30B1206330ED
:10018000B1206F30B1206D30B1206530B12020300A
:10019000B1207430B1206F30B120C030B420443071
:1001A000B1206930B1207630B1206930B1206F3094
:1001B000B1206E30B12008000130B4200F30B420DF
:1001C0004E30B1207530B1206D30B1206230B12099
:1001D0006530B1207230B1202030B1203130B120F3
:1001E000C030B4201021622108000130BF00B420CB
:1001F0000F30B4204E30B1207530B1206D30B120B9
:100200006230B1206530B1207230B1202030B12091
:100210003230B120C030B420A4013921622108005D
:100220002508303EB1202608303EB1202708303E58
:10023000B1202808303EB1202908303EB1202A08DC
:10024000303EB1202E30B1202B08303EB1202C089A
:10025000303EB1202D08303EB1202E08303EB12076
:100260002F08303EB1203008303EB120C030B420DD
:1002700008003108303EB1203208303EB12033084A
:10028000303EB1203408303EB1203508303EB12038
:100290003608303EB1202E30B1203708303EB12034
:1002A0003808303EB1203908303EB1203A08303E9F
:1002B000B1203B08303EB1203C08303EB120C03078
:1002C000B42008002408C03EB42008002408253EBD
:1002D0008400800A00080A3C0319800108002408F1
:1002E000313E8400800A00080A3C0319800108009E
:1002F0002408C03EB4202408253E84000008303E77
:10030000B1202408C03EB42008002408C03EB42018
:100310002408313E84000008303EB1202408C03E4D
:10032000B42008000A30A3210800FA30A321FA30D3
:10033000A32108001430A32108000530A3210800E0
:100340000130A3210800A000C730A200A20BA629FB
:10035000A00BA42908009521C830A3210800FA3079
:0C036000A3213230A32108006300B4295F
:02400E00313748
:00000001FF
