:020000040000FA
:020000000528D1
:040002000034003492
:08000800912800008316031388
:10001000003088000130860083160313071387170A
:1000200083160313011383120313303090008316D9
:1000300003130C10831203130C10E4218312031317
:100040008801A401A501A601A701A801A901AA018F
:10005000AB01AC01AD01AE01AF01B001B101B20124
:10006000B301B401B501B601B701B801B901BA01D4
:10007000BB01BC01A301BD01BE01BF01C001C101A3
:100080007620C1200330A100C3210830BE20C32147
:100090000C30BE20A10B4428C321C321C321C3219E
:1000A000E620831203130B160B178B178B105728A0
:1000B000E229F930F0000000F00B5B280800F100A5
:1000C0005920F10B60280800081559200811080074
:1000D000F500F0398800F41888146420F50E7508CE
:1000E000F0398800F41888146420080064305F2018
:1000F000F030F40030308800642005305F20642048
:1001000059206420081264202830682008306820B4
:100110000130682006306820803068200C3068206C
:100120000800A2008B10C0210618B928C3210618A8
:100130009A28A92801303F02031DA0288221A12866
:10014000702101303F02031DA728AA21B92894215C
:10015000B928A40A063024020319A40A0D30240287
:100160000319F02101303F02031DB828AA21B92844
:10017000942122080900F41468200800F410682073
:1001800008008030BE205730BB206530BB206C306B
:10019000BB206330BB206F30BB206D30BB2065308F
:1001A000BB202030BB207430BB206F30BB20C03060
:1001B000BE204430BB206930BB207630BB20693084
:1001C000BB206F30BB206E30BB2008000130BE204A
:1001D0000F30BE204E30BB207530BB206D30BB20B1
:1001E0006230BB206530BB207230BB202030BB208A
:1001F0003130BB20C030BE201A216C2108000130F4
:10020000BF00BE200F30BE204E30BB207530BB205B
:100210006D30BB206230BB206530BB207230BB200C
:100220002030BB203230BB20C030BE20A40143218F
:100230006C2108002508303EBB202608303EBB203C
:100240002708303EBB202808303EBB202908303E1E
:10025000BB202A08303EBB202E30BB202B08303E6E
:10026000BB202C08303EBB202D08303EBB202E0882
:10027000303EBB202F08303EBB203008303EBB2034
:10028000C030BE2008003108303EBB203208303E6E
:10029000BB203308303EBB203408303EBB2035083D
:1002A000303EBB203608303EBB202E30BB20370806
:1002B000303EBB203808303EBB203908303EBB20E2
:1002C0003A08303EBB203B08303EBB203C08303E65
:1002D000BB20C030BE2008002408C03EBE2008005D
:1002E0002408063C031C78292408253E84007C2928
:1002F0002408FF3E253E8400800A00080A3C0319BA
:10030000800108002408063C031C8A292408313E89
:1003100084008E292408FF3E313E8400800A0008B4
:100320000A3C0319800108002408C03EBE202408AE
:10033000063C031C9F292408253E8400A329240889
:10034000FF3E253E84000008303EBB202408C03E0E
:10035000BE2008002408C03EBE202408063C031C22
:10036000B5292408313E8400B9292408FF3E313ED6
:1003700084000008303EBB202408C03EBE20080098
:100380000A30D1210800FA30D121FA30D1210800F9
:100390001430D12108000530D12108000130D121CD
:1003A0000800A000C730A200A20BD429A00BD229BC
:1003B0000800C321C830D1210800FA30D1213230E1
:1003C000D12108006300E229831603131930990034
:1003D0008316031318129816831203139817080034
:1003E0004108003C031DF729F9210130C100FF201D
:1003F0000800C0014008253E840000080622CB21E9
:10040000C00A40080C3C031DFA2908008316031398
:0C041000981C082A8312031399000800AE
:02400E00313748
:00000001FF
