:020000040000FA
:020000000528D1
:040002000034003492
:08000800922800008316031387
:10001000003088000130860083160313071387170A
:1000200083160313011383120313303090008316D9
:1000300003130C10831203130C10D2218312031329
:100040008801A401A501A601A701A801A901AA018F
:10005000AB01AC01AD01AE01AF01B001B101B20124
:10006000B301B401B501B601B701B801B901BA01D4
:10007000BB01BC01A301BD01BE01BF01C001C101A3
:10008000C2017720C4200330A100B1210830C12073
:10009000B1210C30C120A10B4528B121B121B121E2
:1000A000B121E920831203130B160B178B178B104A
:1000B0005828D029F930F0000000F00B5C28080027
:1000C000F1005A20F10B6128080008155A20081188
:1000D0000800F500F0398800F41888146520F50E42
:1000E0007508F0398800F418881465200800643019
:1000F0006020F030F400303088006520053060204A
:1001000065205A20652008126520283069200830B3
:1001100069200130692006306920803069200C3068
:1001200069200800A2008B10AE210618BC28B1215E
:1001300006189B28AA2801303F02031DA12881210F
:10014000A228782101303F02031DA8289C21BC2849
:100150008A21BC28A40A063024020319A40A0C3000
:100160002402031CB528FC21BC2801303F02031DDA
:10017000BB289C21BC288A2122080900F41469208C
:100180000800F410692008008030C1205730BE20DC
:100190006530BE206C30BE206330BE206F30BE2084
:1001A0006D30BE206530BE202030BE207430BE20B1
:1001B0006F30BE20C030C1204430BE206930BE2028
:1001C0007630BE206930BE206F30BE206E30BE203B
:1001D00008000130C1200F30C1204E30BE207530E4
:1001E000BE206D30BE206230BE206530BE20723031
:1001F000BE202030BE203130BE20C030C1201D21A5
:100200006F2108000130BF00C1200F30C1204E30E7
:10021000BE207530BE206D30BE206230BE206530FD
:10022000BE207230BE202030BE203230BE20C03012
:10023000C120A40146216F2108002508303EBE20C0
:100240002608303EBE202708303EBE202808303E1B
:10025000BE202908303EBE202A08303EBE202E3067
:10026000BE202B08303EBE202C08303EBE202D087C
:10027000303EBE202E08303EBE202F08303EBE202D
:100280003008303EBE20C030C12008003108303E6A
:10029000BE203208303EBE203308303EBE20340837
:1002A000303EBE203508303EBE203608303EBE20EF
:1002B0002E30BE203708303EBE203808303EBE20EB
:1002C0003908303EBE203A08303EBE203B08303E62
:1002D000BE203C08303EBE20C030C12008002408AB
:1002E000A200063C031CA20A2208C03EC12008004E
:1002F0002408253E8400800A00080A3C0319800176
:1003000008002408313E8400800A00080A3C0319D2
:10031000800108002408A200063C031CA20A22084F
:10032000C03EC1202408253E84000008303EBE2087
:100330002208C03EC12008002408A200063C031C7D
:10034000A20A2208C03EC1202408313E84000008D1
:10035000303EBE202208C03EC12008000A30BF2126
:100360000800FA30BF21FA30BF2108001430BF2145
:1003700008000530BF2108000130BF210800A0009F
:10038000C730A200A20BC229A00BC0290800B121CE
:10039000C830BF210800FA30BF213230BF21080029
:1003A0006300D029831603131930990083160313B1
:1003B0001812981683120313981708004108003C7E
:1003C000031DE5296E220130C10002210800C00191
:1003D0004008253E84000008F421B921C00A4008E5
:1003E0000C3C031DE829080083160313981CF6290A
:1003F00083120313990008003F08003C0319032AE5
:100400008A221822042ADE2108004208003C031D2B
:100410000800C0014008313E84000008F421B921E1
:10042000C00A40080C3C031D0A2A0130C200080023
:100430000130C1208030C1205430BE205230BE2057
:100440004130BE204E30BE205330BE204D30BE2045
:100450004930BE205330BE205330BE204930BE202C
:100460004F30BE204E30BE20C030C1204330BE20B1
:100470004F30BE204D30BE205030BE204C30BE200C
:100480004530BE205430BE204530BE202130BE2035
:10049000B121B121B121B121B121B12150220800F6
:1004A000A401BF01C101C201A501A601A701A801C4
:1004B000A901AA01AB01AC01AD01AE01AF01B001D0
:1004C000B101B201B301B401B501B601B701B80180
:1004D000B901BA01BB01BC01E9200800C001AA3082
:1004E000F421B9214008253E84000008093C031C82
:1004F0007E2A4008253E840000087F2A0030F4212F
:10050000B921C00A40080C3C031D722ABB30F421FB
:10051000B92108004208003C031D0800C001CC308E
:10052000F421B9214008313E84000008093C031C35
:100530009E2A4008313E840000089F2A0030F421A2
:10054000B921C00A40080C3C031D922ADD30F42179
:08055000B9210130C2000800CE
:02400E00313748
:00000001FF
