:020000040000FA
:020000000528D1
:040002000034003492
:08000800922800008316031387
:10001000003088000130860083160313071387170A
:1000200083160313011383120313303090008316D9
:1000300003130C10831203130C10C121831203133A
:100040008801A401A501A601A701A801A901AA018F
:10005000AB01AC01AD01AE01AF01B001B101B20124
:10006000B301B401B501B601B701B801B901BA01D4
:10007000BB01BC01A301BD01BE01BF01C001C101A3
:10008000C2017720C2200330A100A0210830BF2088
:10009000A0210C30BF20A10B4528A021A021A02128
:1000A000A021E720831203130B160B178B178B105D
:1000B0005828BF29F930F0000000F00B5C28080038
:1000C000F1005A20F10B6128080008155A20081188
:1000D0000800F500F0398800F41888146520F50E42
:1000E0007508F0398800F418881465200800643019
:1000F0006020F030F400303088006520053060204A
:1001000065205A20652008126520283069200830B3
:1001100069200130692006306920803069200C3068
:1001200069200800A2008B109D210618BA28A02182
:1001300006189B28AA2801303F02031DA1287A2116
:10014000A228712101303F02031DA8289021BA285E
:100150008321BA28A40A063024020319A40A0C3009
:1001600024020319EB2101303F02031DB92890211D
:10017000BA28832122080900F41469200800F41029
:10018000692008008030BF205730BC206530BC207B
:100190006C30BC206330BC206F30BC206D30BC2084
:1001A0006530BC202030BC207430BC206F30BC20B7
:1001B000C030BF204430BC206930BC207630BC2029
:1001C0006930BC206F30BC206E30BC20080001308C
:1001D000BF200F30BF204E30BC207530BC206D30AA
:1001E000BC206230BC206530BC207230BC20203086
:1001F000BC203130BC20C030BF201B216D21080045
:100200000130BF00BF200F30BF204E30BC20753002
:10021000BC206D30BC206230BC206530BC20723008
:10022000BC202030BC203230BC20C030BF20A40114
:1002300044216D2108002508303EBC202608303EB0
:10024000BC202708303EBC202808303EBC202908AE
:10025000303EBC202A08303EBC202E30BC202B086B
:10026000303EBC202C08303EBC202D08303EBC2047
:100270002E08303EBC202F08303EBC203008303ED7
:10028000BC20C030BF2008003108303EBC203208FE
:10029000303EBC203308303EBC203408303EBC2009
:1002A0003508303EBC203608303EBC202E30BC2005
:1002B0003708303EBC203808303EBC203908303E7C
:1002C000BC203A08303EBC203B08303EBC203C08F5
:1002D000303EBC20C030BF2008002408C03EBF20F4
:1002E00008002408253E8400800A00080A3C0319FF
:1002F000800108002408313E8400800A00080A3C7E
:100300000319800108002408C03EBF202408253EB0
:1003100084000008303EBC202408C03EBF200800F6
:100320002408C03EBF202408313E84000008303E2F
:10033000BC202408C03EBF2008000A30AE210800BF
:10034000FA30AE21FA30AE2108001430AE21080098
:100350000530AE2108000130AE210800A000C730F2
:10036000A200A20BB129A00BAF290800A021C83020
:10037000AE210800FA30AE213230AE210800630011
:10038000BF2983160313193099008316031318121B
:10039000981683120313981708004108003C031DA8
:1003A000D429D6210130C10000210800C001400835
:1003B000253E84000008E321A821C00A40080C3C27
:1003C000031DD729080083160313981CE5298312FF
:1003D0000313990008003F08003C0319F229F42197
:1003E0000722F329CD2108004208003C031D080024
:1003F000C0014008313E84000008E321A821C00A62
:1004000040080C3C031DF9290130C20008000130EE
:10041000BF208030BF205430BC205230BC2041303F
:10042000BC204E30BC205330BC204D30BC20493065
:10043000BC205330BC205330BC204930BC204F304E
:10044000BC204E30BC20C030BF204330BC204F30D9
:10045000BC204D30BC205030BC204C30BC2045303E
:10046000BC205430BC204530BC202130BC20A02111
:10047000A021A021A021A021A0213F220800A401A9
:10048000BF01C101C201A501A601A701A801A901DF
:10049000AA01AB01AC01AD01AE01AF01B001B101E8
:1004A000B201B301B401B501B601B701B801B90198
:0A04B000BA01BB01BC01E7200800FF
:02400E00313748
:00000001FF
