:020000040000FA
:020000000528D1
:040002000034003492
:08000800922800008316031387
:10001000003088000130860083160313071387170A
:1000200083160313011383120313303090008316D9
:1000300003130C10831203130C10F3218312031308
:100040008801A401A501A601A701A801A901AA018F
:10005000AB01AC01AD01AE01AF01B001B101B20124
:10006000B301B401B501B601B701B801B901BA01D4
:10007000BB01BC01A301BD01BE01BF01C001C101A3
:10008000C2017720D0200330A100D2210830CD203A
:10009000D2210C30CD20A10B4528D221D221D22152
:1000A000D221F520831203130B160B178B178B101D
:1000B0005828F129F930F0000000F00B5C28080006
:1000C000F1005A20F10B6128080008155A20081188
:1000D0000800F500F0398800F41888146520F50E42
:1000E0007508F0398800F418881465200800643019
:1000F0006020F030F400303088006520053060204A
:1001000065205A20652008126520283069200830B3
:1001100069200130692006306920803069200C3068
:1001200069200800A2008B10CF210618C828D22110
:1001300006189B28AA2801303F02031DA1289121FF
:10014000A2287F2101303F02031DA828B921C82819
:10015000A321C828A40A063024020319A40A0D30DA
:100160002402031DC12801303F02031DBF2842089D
:10017000003C031DC82815220130C200C828FF21F9
:10018000C82801303F02031DC728B921C828A32170
:1001900022080900F41469200800F41069200800FE
:1001A0008030CD205730CA206530CA206C30CA203C
:1001B0006330CA206F30CA206D30CA206530CA2033
:1001C0002030CA207430CA206F30CA20C030CD2001
:1001D0004430CA206930CA207630CA206930CA202B
:1001E0006F30CA206E30CA2008000130CD200F3099
:1001F000CD204E30CA207530CA206D30CA20623002
:10020000CA206530CA207230CA202030CA2031305E
:10021000CA20C030CD2029217B2108000130BF0039
:10022000CD200F30CD204E30CA207530CA206D3021
:10023000CA206230CA206530CA207230CA202030FD
:10024000CA203230CA20C030CD20A40152217B21E7
:1002500008002508303ECA202608303ECA2027085C
:10026000303ECA202808303ECA202908303ECA2025
:100270002A08303ECA202E30CA202B08303ECA2021
:100280002C08303ECA202D08303ECA202E08303EB1
:10029000CA202F08303ECA203008303ECA20C03065
:1002A000CD2008003108303ECA203208303ECA2036
:1002B0003308303ECA203408303ECA203508303E6C
:1002C000CA203608303ECA202E30CA203708303EB9
:1002D000CA203808303ECA203908303ECA203A08C1
:1002E000303ECA203B08303ECA203C08303ECA207F
:1002F000C030CD2008002408C03ECD2008002408CE
:10030000063C031C87292408253E84008B292408E9
:10031000FF3E253E8400800A00080A3C0319800144
:1003200008002408063C031C99292408313E840057
:100330009D292408FF3E313E8400800A00080A3CC3
:100340000319800108002408C03ECD202408063C83
:10035000031CAE292408253E8400B2292408FF3E50
:10036000253E84000008303ECA202408C03ECD202F
:1003700008002408C03ECD202408063C031CC429E4
:100380002408313E8400C8292408FF3E313E840001
:100390000008303ECA202408C03ECD2008000A30A4
:1003A000E0210800FA30E021FA30E02108001430A2
:1003B000E02108000530E02108000130E0210800BC
:1003C000A000C730A200A20BE329A00BE12908007E
:1003D000D221C830E0210800FA30E0213230E0219B
:1003E00008006300F129831603131930990083165E
:1003F0000313181298168312031398170800410864
:10040000003C031D062A08220130C1000E2108000D
:10041000C0014008253E840000082222DA21C00ADB
:1004200040080C3C031D092A0800C0014008313E69
:10043000840000082222DA21C00A40080C3C031D77
:10044000162A080083160313981C242A8312031308
:040450009900080007
:02400E00313748
:00000001FF
