:020000040000FA
:020000000528D1
:040002000034003492
:08000800090083160313003008
:100010008800F830860083120313A401A501A6010D
:10002000A701A801A901AA01A301CF20A62003309E
:10003000A1000830DF20F1200C30DF20F120A10BDF
:100040001928F120F120F120F1200130DF200F30BC
:10005000DF2078208D20A220861D2C28EE20861DF2
:100060002C282408820739283C283F284228452884
:1000700048282508A3004B282608A3004B2827085A
:10008000A3004B282808A3004B282908A3004B28CD
:100090002A08A3004B282308093C03195128A30A66
:1000A0005728A3012408053C03195728A40A24084B
:1000B00082075F286228652868286B286E28230835
:1000C000A50071282308A60071282308A70071281D
:1000D0002308A80071282308A90071282308AA0072
:1000E00071288D20A220742886197428EE202C28CF
:1000F0008030DF204E30E4207530E4206D30E42085
:100100006230E4206530E4207230E4202030E420C6
:100110003130E420C030DF200800C030DF20250867
:10012000303EE4202608303EE4202708303EE4201C
:100130002808303EE4202908303EE4202A08303EDA
:10014000E42008002408C03EDF2008008030DF20C3
:100150005730E4206530E4206C30E4206330E42044
:100160006F30E4206D30E4206530E4202030E4205E
:100170007430E4206F30E420C030DF204430E420CD
:100180006930E4207630E4206930E4207330E420E4
:100190006930E4206F30E4206E30E4200800F6205F
:1001A0003830DF20F9203830DF20FC203830DF20E5
:1001B0000F30DF200130DF200630DF20080088000C
:1001C0000610E920FC20080088000614E920FC2025
:1001D0000800061500000000061108003230FF205C
:1001E0000800FA30FF20FA30FF2008001430FF200A
:1001F00008000530FF2008000130FF200800A000A3
:0E020000C730A200A20B0229A00B00290800A3
:02400E00723FFF
:00000001FF
