:020000040000FA
:020000000528D1
:040002000034003492
:08000800912800008316031388
:10001000003088000130860083160313071387170A
:1000200083160313011383120313303090008316D9
:1000300003130C10831203130C10C021831203133B
:100040008801A401A501A601A701A801A901AA018F
:10005000AB01AC01AD01AE01AF01B001B101B20124
:10006000B301B401B501B601B701B801B901BA01D4
:10007000BB01BC01A301BD01BE01BF01C001C101A3
:100080007620C1200330A1009F210830BE209F218F
:100090000C30BE20A10B44289F219F219F219F212E
:1000A000E620831203130B160B178B178B105728A0
:1000B000BE29F930F0000000F00B5B280800F100C9
:1000C0005920F10B60280800081559200811080074
:1000D000F500F0398800F41888146420F50E7508CE
:1000E000F0398800F41888146420080064305F2018
:1000F000F030F40030308800642005305F20642048
:1001000059206420081264202830682008306820B4
:100110000130682006306820803068200C3068206C
:100120000800A2008B109C210618B9289F210618F0
:100130009A28A92801303F02031DA0287921A1286F
:10014000702101303F02031DA7288F21B928822189
:10015000B928A40A063024020319A40A0D30240287
:100160000319CC2101303F02031DB8288F21B92883
:10017000822122080900F41468200800F410682085
:1001800008008030BE205730BB206530BB206C306B
:10019000BB206330BB206F30BB206D30BB2065308F
:1001A000BB202030BB207430BB206F30BB20C03060
:1001B000BE204430BB206930BB207630BB20693084
:1001C000BB206F30BB206E30BB2008000130BE204A
:1001D0000F30BE204E30BB207530BB206D30BB20B1
:1001E0006230BB206530BB207230BB202030BB208A
:1001F0003130BB20C030BE201A216C2108000130F4
:10020000BF00BE200F30BE204E30BB207530BB205B
:100210006D30BB206230BB206530BB207230BB200C
:100220002030BB203230BB20C030BE20A40143218F
:100230006C2108002508303EBB202608303EBB203C
:100240002708303EBB202808303EBB202908303E1E
:10025000BB202A08303EBB202E30BB202B08303E6E
:10026000BB202C08303EBB202D08303EBB202E0882
:10027000303EBB202F08303EBB203008303EBB2034
:10028000C030BE2008003108303EBB203208303E6E
:10029000BB203308303EBB203408303EBB2035083D
:1002A000303EBB203608303EBB202E30BB20370806
:1002B000303EBB203808303EBB203908303EBB20E2
:1002C0003A08303EBB203B08303EBB203C08303E65
:1002D000BB20C030BE2008002408C03EBE2008005D
:1002E0002408253E8400800A00080A3C0319800186
:1002F00008002408313E8400800A00080A3C0319E3
:10030000800108002408C03EBE202408253E840049
:100310000008303EBB202408C03EBE200800240850
:10032000C03EBE202408313E84000008303EBB2081
:100330002408C03EBE2008000A30AD210800FA3073
:10034000AD21FA30AD2108001430AD210800053090
:10035000AD2108000130AD210800A000C730A20087
:10036000A20BB029A00BAE2908009F21C830AD21F7
:100370000800FA30AD213230AD2108006300BE29FB
:100380008316031319309900831603131812981655
:1003900083120313981708004108003C031DD3295A
:1003A000D5210130C100FF200800C0014008253ED2
:1003B00084000008E221A721C00A40080C3C031D6C
:1003C000D629080083160313981CE429831203130B
:0403D0009900080088
:02400E00313748
:00000001FF
