:020000040000FA
:020000000528D1
:040002000034003492
:080008001A28000083160313FF
:100010000030880083160313871707132A208312E2
:100020000313880178213D205920831203130B17F5
:100030008B171928A000831203138C1E2828831203
:1000400003131A08A1008A2022080C3C03199B20E4
:10005000200809008316031319309900831603132F
:100060001812981683120313981718168316031381
:100070008C16831203138C120800A2010130A30016
:10008000A401A501A601A701A801A901AA01AB012C
:10009000AC01AD01AE01AF01B001B101B201B301DC
:1000A000B401B501B601B701B801B901BA01BB018C
:1000B00008000130582180305821533055214C30F0
:1000C000552141305521563055214530552120309C
:1000D000552152305521453055214130552144306C
:1000E000552159305521C0305821573055216130A4
:1000F00055216930552174305521693055216E30B4
:100100005521673055212E3055212E3055212E3066
:100110005521080022082308013C031992282208CF
:10012000303E94282208243E840021088000A20A40
:1001300008009B2008002308013C0319A128C020C7
:10014000A528A6200230A300A201080001305821F2
:10015000803058214E305521553055214D30552194
:1001600042305521453055215230552120305521FE
:10017000313055213A305521C0305821072108002F
:1001800001305821803058214E30552131305521D1
:100190003A3055212408303E55212508303E55215E
:1001A0002608303E55212708303E55212808303E8C
:1001B00055212908303E55212E3055212A08303E40
:1001C00055212B08303E5521C03058214E30552145
:1001D000323055213A3055213008303E5521310812
:1001E000303E55213208303E55213308303E5521EE
:1001F0003408303E55213508303E55212E305521EA
:100200003608303E55213708303E55210800240875
:10021000303E55212508303E55212608303E5521D7
:100220002708303E55212808303E55212908303E08
:1002300055212E3055212A08303E55212B08303EBD
:1002400055212C08303E55212D08303E55212E08D1
:10025000303E55212F08303E552108003008303EF1
:1002600055213108303E55213208303E55213308A2
:10027000303E55213408303E55213508303E552159
:100280002E3055213608303E55213708303E552155
:100290003808303E55213908303E55213A08303E65
:1002A00055213B08303E55210800F4146A2108000E
:1002B000F4106A210800F930F0000000F00B5D290D
:1002C0000800F1005B21F10B6229080008155B2191
:1002D00008110800F500F0398800F4188814662128
:1002E000F50E7508F0398800F418881466210800A6
:1002F00064306121F030F400303088006621053030
:10030000612166215B2166210812662128306A215D
:1003100008306A2101306A2106306A2180306A2162
:060320000C306A21080008
:02400E00313748
:00000001FF
