:020000040000FA
:020000000528D1
:040002000034003492
:080008001A28000083160313FF
:1000100000308800831603138717071349208312C3
:100020000313880168215C207A20831203130B17C5
:100030008B171928A000831203138C1E47288312E4
:1000400003131A08A1002308003C031928283828A4
:100050002208243E840021088000A20A22080C3CC9
:10006000031D47280130BC00A201A30AED20472848
:100070002208303E840021088000A20A22080C3C9D
:10008000031D47280130BD000130BE000C212008AF
:1000900009008316031319309900831603131812ED
:1000A00098168312031398171816831603138C16C9
:1000B000831203138C120800A201A301A401A5015D
:1000C000A601A701A801A901AA01AB01AC01AD01DC
:1000D000AE01AF01B001B101B201B301B401B5018C
:1000E000B601B701B801B901BA01BB01BC01BD013C
:1000F000BE010800013040218030402153303D21B5
:100100004C303D2141303D2156303D2145303D218F
:1001100020303D2152303D2145303D2141303D21AF
:1001200044303D2159303D21C030402157303D21E0
:1001300061303D2169303D2174303D2169303D21E0
:100140006E303D2167303D212E303D212E303D2146
:100150002E303D21080001304021803040215230B6
:100160003D2145303D2143303D2145303D21493041
:100170003D2156303D2145303D2144303D213A302E
:100180003D21C0304021C620A20108002408303E95
:100190003D212508303E3D212608303E3D212708DF
:1001A000303E3D212808303E3D212908303E3D218A
:1001B0002E303D212A08303E3D212B08303E3D2186
:1001C0002C08303E3D212D08303E3D212E08303E8A
:1001D0003D212F08303E3D21080001304021803074
:1001E000402146303D2149303D2152303D215330A0
:1001F0003D2154303D2120303D214E303D215530B0
:100200003D214D303D2120303D2152303D214330B4
:100210003D2156303D2108000130402180304021F1
:1002200042303D214F303D2154303D2148303D2169
:1002300020303D214E303D2155303D214D303D2176
:1002400042303D2145303D2152303D2153303D214A
:10025000C030402152303D2145303D2143303D21C9
:1002600045303D2149303D2156303D2145303D212D
:1002700044303D2121303D210800F4145A2108006A
:10028000F4105A210800243E840000080800303E83
:10029000840000080800F930F0000000F00B4D2940
:1002A0000800F1004B21F10B5229080008154B21E1
:1002B00008110800F500F0398800F4188814562158
:1002C000F50E7508F0398800F418881456210800D6
:1002D00064305121F030F400303088005621053070
:1002E000512156214B2156210812562128305A21DE
:1002F00008305A2101305A2106305A2180305A21C3
:060300000C305A21080038
:02400E00313748
:00000001FF
