:020000040000FA
:020000000528D1
:040002000034003492
:080008001A28000083160313FF
:100010000030880083160313871707132D208312DF
:10002000031388013F2240205C20831203130B1727
:100030008B171928A000831203138C1E2B28831200
:1000400003131A08A1005A2103192B288D20220816
:100050000C3C03199E202008090083160313193055
:100060009900831603131812981683120313981716
:100070001816831603138C16831203138C120800B0
:10008000A2010130A300A401A501A601A701A801B6
:10009000A901AA01AB01AC01AD01AE01AF01B001F4
:1000A000B101B201B301B401B501B601B701B801A4
:1000B000B901BA01BB0108000130822180308221E0
:1000C00053307F214C307F2141307F2156307F21BA
:1000D00045307F2120307F2152307F2145307F21E4
:1000E00041307F2144307F2159307F21C03082212F
:1000F00057307F2161307F2169307F2174307F212B
:1001000069307F216E307F2167307F212E307F2143
:100110002E307F212E307F21080022082308013C49
:10012000031995282208303E97282208243E84008F
:1001300021088000A20A08009E2008002308013C34
:100140000319A428C320A828A9200230A300A201D3
:10015000080001308221803082214E307F215530CD
:100160007F214D307F2142307F2145307F21523029
:100170007F2120307F2131307F213A307F21C030F4
:1001800082210C21080085210B2201308221803040
:1001900082214E307F2131307F213A307F21240867
:1001A000303E7F212508303E7F212608303E7F21CA
:1001B0002708303E7F212808303E7F212908303E25
:1001C0007F212E307F212A08303E7F212B08303EB0
:1001D0007F21C03082214E307F2132307F213A3062
:1001E0007F213008303E7F213108303E7F213208A8
:1001F000303E7F213308303E7F213408303E7F215E
:100200003508303E7F212E307F213608303E7F2159
:100210003708303E7F2108002408303E7F21250822
:10022000303E7F212608303E7F212708303E7F2147
:100230002808303E7F212908303E7F212E307F2143
:100240002A08303E7F212B08303E7F212C08303E8B
:100250007F212D08303E7F212E08303E7F212F0840
:10026000303E7F2108003008303E7F213108303E8B
:100270007F213208303E7F213308303E7F21340811
:10028000303E7F213508303E7F212E307F213608D9
:10029000303E7F213708303E7F213808303E7F21B5
:1002A0003908303E7F213A08303E7F213B08303EFE
:1002B0007F2108002108AA3C031970292108CC3CA1
:1002C000031975292108BB3C03197A292108DD3C53
:1002D00003197A292108093C031C7C290311080011
:1002E000A2010130A30003150800A2010230A300FF
:1002F0000315080003150800A10103110800F414F8
:1003000031220800F41031220800013082218030AF
:10031000822144307F2145307F2142307F2155307A
:100320007F2147307F213A307F2120307F214130AB
:100330007F2152307F2152307F2131307F21C030E8
:1003400082212408303E7F212508303E7F21260867
:10035000303E7F212708303E7F212808303E7F2114
:100360002908303E7F217C307F212A08303E7F21C2
:100370002B08303E7F212C08303E7F212D08303E57
:100380007F212E08303E7F212F08303E7F210B2217
:10039000013082218030822144307F2145307F210D
:1003A00042307F2155307F2147307F213A307F21F5
:1003B00020307F2141307F2152307F2152307F21F8
:1003C00032307F21C03082213008303E7F21310819
:1003D000303E7F213208303E7F213308303E7F217E
:1003E0003408303E7F213508303E7F217C307F212C
:1003F0003608303E7F213708303E7F213808303EB6
:100400007F213908303E7F213A08303E7F213B086A
:10041000303E7F2108000F220F220F220800C83033
:100420001A22C8301A22C8301A22C8301A22C830FC
:100430001A220800A0000000000000000000A00B2D
:100440001B2A0800F930F0000000F00B242A0800F5
:10045000F1002222F10B292A080008152222081196
:100460000800F500F0398800F41888142D22F50EE4
:100470007508F0398800F41888142D2208006430BB
:100480002822F030F400303088002D220530282258
:100490002D2222222D2208122D222830312208302E
:1004A00031220130312206303122803031220C30AD
:0404B00031220800ED
:02400E00313748
:00000001FF
