:020000040000FA
:020000000528D1
:040002000034003492
:080008001A28000083160313FF
:100010000030880083160313871707132A208312E2
:1000200003138801E8203D204B20831203130B1794
:100030008B171928A000831203138C1E2828831203
:1000400003131A08A1007C2022080C3C031983200A
:10005000200809008316031319309900831603132F
:100060001812981683120313981718168316031381
:100070008C16831203138C120800A201A301A401A1
:10008000A501A601A701A801A901AA01AB01AC0124
:10009000AD01AE0108000130C8208030C8205330C7
:1000A000C5204C30C5204130C5205630C5204530D4
:1000B000C5202030C5205230C5204530C5204130F4
:1000C000C5204430C5205930C520C030C820573025
:1000D000C5206130C5206930C5207430C520693025
:1000E000C5206E30C5206730C5202E30C5202E308B
:1000F000C5202E30C52008002208233E8400210898
:100100008000A20A08000130C8208030C820523088
:10011000C5204530C5204330C5204530C520493075
:10012000C5205630C5204530C5204430C5203A3062
:10013000C520C030C8209E20A20108002308303E00
:10014000C5202408303EC5202508303EC52026089D
:10015000303EC5202708303EC5202808303EC52047
:100160002E30C5202908303EC5202A08303EC52043
:100170002B08303EC5202C08303EC5202D08303ECF
:10018000C5202E08303EC5200800F414DA200800EF
:10019000F410DA200800F930F0000000F00BCD2850
:1001A0000800F100CB20F10BD22808000815CB2065
:1001B00008110800F500F0398800F4188814D620DA
:1001C000F50E7508F0398800F4188814D620080058
:1001D0006430D120F030F40030308800D620053073
:1001E000D120D620CB20D6200812D6202830DA20E5
:1001F0000830DA200130DA200630DA208030DA20C8
:060200000C30DA200800BA
:02400E00313748
:00000001FF
