:020000040000FA
:020000000528D1
:040002000034003492
:080008001A28000083160313FF
:100010000030880083160313871707132A208312E2
:100020000313880100213D206320831203130B1763
:100030008B171928A000831203138C1E2828831203
:1000400003131A08A100942022080C3C03199B20DA
:10005000200809008316031319309900831603132F
:100060001812981683120313981718168316031381
:100070008C16831203138C120800A201A301A401A1
:10008000A501A601A701A801A901AA01AB01AC0124
:10009000AD01AE010130A3000230A4000330A50081
:1000A0000430A6000530A7000630A8000730A900DC
:1000B0000830AA000930AB000530AC000630AD00B6
:1000C0000730AE0008000130E0208030E0205330DF
:1000D000DD204C30DD204130DD205630DD20453044
:1000E000DD202030DD205230DD204530DD20413064
:1000F000DD204430DD205930DD20C030E020573095
:10010000DD206130DD206930DD207430DD20693094
:10011000DD206E30DD206730DD202E30DD202E30FA
:10012000DD202E30DD2008002208233E8400210837
:100130008000A20A08000130E0208030E020523028
:10014000DD204530DD204330DD204530DD204930E5
:10015000DD205630DD204530DD204430DD203A30D2
:10016000DD20C030E020B620A20108002308303E88
:10017000DD202408303EDD202508303EDD20260825
:10018000303EDD202708303EDD202808303EDD20CF
:100190002E30DD202908303EDD202A08303EDD20CB
:1001A0002B08303EDD202C08303EDD202D08303E6F
:1001B000DD202E08303EDD200800F414F220080077
:1001C000F410F2200800F930F0000000F00BE528F0
:1001D0000800F100E320F10BEA2808000815E320ED
:1001E00008110800F500F0398800F4188814EE2092
:1001F000F50E7508F0398800F4188814EE20080010
:100200006430E920F030F40030308800EE20053012
:10021000E920EE20E320EE200812EE202830F22024
:100220000830F2200130F2200630F2208030F22037
:060230000C30F220080072
:02400E00313748
:00000001FF
