:020000040000FA
:020000000528D1
:040002000034003492
:08000800842800008316031395
:10001000003088000130860083160313071387170A
:1000200083160313011383120313313090008312DC
:100030000313EC308F0078308E00831603130C14FA
:10004000831203130C108624831203138801A40166
:10005000D801A501A601A701A801A901AA01AB0128
:10006000AC01AD01AE01AF01B001B101B201B3010C
:10007000B401B501B601B701B801B901BA01BB01BC
:10008000BC01BD01BE01BF01C001C101C201C3016C
:10009000C401C501C601C701C801C901A301CA0144
:1000A000CB01CC01CD01CE01CF01D001D101D201D4
:1000B0002830D400D501D601D701D901DA01DB01FE
:1000C000DC01DD01E124F6220330A10070240830B8
:1000D000F32270240C30F322A10B662870247024C4
:1000E000702470241F23B922831203130B160B17DD
:1000F0008B178B1059187E2851187F287A285D1885
:100100007E28DA235D147E28A200831203130C18C4
:10011000A428831203138B18C0288C1EC7288312AF
:1001200003131A08D3009528C72852083D3E8400BF
:1001300053088000D20A52080C3C031DC728013026
:10014000D1005910D201C728831203130C10831257
:100150000313EC308F0078308E0056080319B32853
:10016000D60BB328D7015918C728551CC728D40B5C
:10017000C7285510C920E3202830D4005514C728BB
:10018000831203138B106D240618C72864212208DC
:10019000090001304C02031DD32815214521C03030
:1001A000F322B323080004212621C030F3228C233C
:1001B000080001304C02031DE028152145210800EC
:1001C0000421262108005818F528E628A40A240846
:1001D000063C0319EF280F30F322192408000530DC
:1001E000A4000F30F32219240800A40A24080D3CAF
:1001F0000319FE280F30F322192408000C30A40044
:100200000F30F322192408002408063C031C0E2991
:100210002408253E84000008DA0008002408FF3E78
:10022000253E84000008DA0008002408063C031C70
:100230001F292408313E84000008DA000800240841
:10024000FF3E313E84000008DA0008002408013E29
:10025000DB005B080D3C031908005B08063C031932
:1002600042295B08063C031C3B295B08253E8400B1
:100270005A08800043295B08FF3E253E84005A0847
:10028000800043294329DB0A29292408013EDB0099
:100290005B080D3C031908005B08063C0319612943
:1002A0005B08063C031C5A295B08313E84005A084F
:1002B000800062295B08FF3E313E84005A088000BE
:1002C00062296229DB0A4829511877295918F82927
:1002D000BD22D70A0F30D6005708013C03197B2AEC
:1002E0005708023C0319852AD701D6017B2ABD2273
:1002F000D70A0F30D6005708023C0319982957082F
:10030000013C03198629D701D6018629DC0A5C083D
:10031000033C0319DC015C08003C0319FB295C0861
:10032000013C0319FD295C08023C03193C2A080022
:100330000000831603130030880001308600831606
:100340000313071387178316031301138312031371
:100350003130900083120313EC308F0078308E0020
:10036000831603130C14831203130C1086248312B8
:1003700003138801A401D801A501A601A701A801C2
:10038000A901AA01AB01AC01AD01AE01AF01B00101
:10039000B101B201B301B401B501B601B701B801B1
:1003A000B901BA01BB01BC01BD01BE01BF01C00161
:1003B000C101C201C301C401C501C601C701C80111
:1003C000C901A301CA01CB01CC01CD01CE01CF01EE
:1003D000D001D101D2012830D400D501D601D701F6
:1003E000D901DA01DB01DC01DD011F23B92208009C
:1003F000591008007729DA2308000130F3220C3065
:10040000F3228030F3224E30F0227530F0226D302E
:10041000F0226230F0226530F0227230F02231306A
:10042000F0223A30F022C030F3222508303EF0228C
:100430002608303EF0222708303EF0222808303EC1
:10044000F0222908303EF0222A08303EF0222E30D9
:10045000F0222B08303EF0222C08303EF0222D08EE
:10046000303EF0222E08303EF0222F08303EF0229F
:100470003008303EF02208000130F3220C30F32225
:100480008030F3224E30F0227530F0226D30F022B1
:100490006230F0226530F0227230F0223230F022E9
:1004A0003A30F022C030F3223108303EF0223208D8
:1004B000303EF0223308303EF0223408303EF02245
:1004C0003508303EF0223608303EF0222E30F02241
:1004D0003708303EF0223808303EF0223908303EEE
:1004E000F0223A08303EF0223B08303EF0223C0831
:1004F000303EF022080001304C02031D822A2F24D6
:10050000572408001D2441240800D701D601C12228
:10051000D92001304C02031D902A5818AD2AA72A71
:100520005818992A932A58140730A4003C23BD2256
:1005300008004E08003C031DA02AA2240130CE0072
:10054000D801A401D701D6015723BD2208005814B1
:100550000730A4007A23BD2208004F08003C031D89
:10056000B42AAF240130CF0083235914C1220800DC
:1005700008002830D400551408002830D400551441
:100580000800551008000130F3228030F322C030FB
:10059000F3223D08303EF0223E08303EF0223F0874
:1005A000303EF0224008303EF0224108303EF0223A
:1005B0004208303EF0222E30F0224308303EF02236
:1005C0004408303EF0224508303EF0224608303ED6
:1005D000F0224708303EF0224808303EF022080062
:1005E000F414D3240800F410D32408008030F3223C
:1005F0005730F0226530F0226C30F0226330F02268
:100600006F30F0226D30F0226530F0222030F02281
:100610007430F0226F30F022C030F3224430F022E8
:100620006930F0227630F0226930F0227330F02207
:100630006930F0226F30F0226E30F0220800D801CD
:10064000A4010130F3220F30F3228030F3224E3028
:10065000F0227530F0226D30F0226230F0226530E9
:10066000F0227230F0222030F0223130F022C030FF
:10067000F3228C23192408000130F3220F30F322D7
:100680008030F3224E30F0227530F0226D30F022AF
:100690006230F0226530F0227230F0222030F022F9
:1006A0003130F022C030F3228C23192408000130AD
:1006B000CC00F3220F30F3228030F3224E30F022B0
:1006C0007530F0226D30F0226230F0226530F02279
:1006D0007230F0222030F0223230F0227024702468
:1006E0000130CC00F3220F30F322C030F322B323C9
:1006F000192408000130F3220F30F322C030F32216
:10070000B323192408000130F3220C30F322803087
:10071000F3223D30F02208002508303EF022260862
:10072000303EF0222708303EF0222808303EF022EA
:100730002908303EF0222A08303EF0222E30F022E6
:100740002B08303EF0222C08303EF0222D08303E9F
:10075000F0222E08303EF0222F08303EF0223008E2
:10076000303EF02208003108303EF0223208303EA0
:10077000F0223308303EF0223408303EF0223508B3
:10078000303EF0223608303EF0222E30F02237087C
:10079000303EF0223808303EF0223908303EF02258
:1007A0003A08303EF0223B08303EF0223C08303E12
:1007B000F0220800C122DC010130F3220C30F322C8
:1007C0008030F3225230F0226530F0227330F02274
:1007D0007530F0226C30F0227430F0223A30F02282
:1007E000C030F3223D08303EF0223E08303EF02279
:1007F0003F08303EF0224008303EF0224108303EB3
:10080000F0224208303EF0222E30F0224308303EE3
:10081000F0224408303EF0224508303EF0224608DF
:10082000303EF0224708303EF0224808303EF022A9
:1008300008002408C03EF32208002408063C031CDC
:10084000252C2408253E8400292C2408FF3E253E23
:100850008400800A00080A3C03198001080024086B
:10086000063C031C372C2408313E84003B2C240812
:10087000FF3E313E8400800A00080A3C03198001D3
:1008800008002408C03EF3222408063C031C4C2C1C
:100890002408253E8400502C2408FF3E253E840079
:1008A0000008303EF0222408C03EF322080024084D
:1008B000C03EF3222408063C031C622C2408313E6F
:1008C0008400662C2408FF3E313E84000008303E40
:1008D000F0222408C03EF32208000A307E240800DB
:1008E000FA307E24FA307E24080014307E2408007A
:1008F00005307E24080001307E240800A000C730A7
:10090000A200A20B812CA00B7F2C080083160313DE
:1009100019309900831603131812981683120313C3
:1009200098171816831603138C16831203138C1250
:1009300008004E08003C031DA02CA2240130CE006C
:1009400057230800CD014D08253E84000008BC2433
:100950007824CD0A4D080C3C031DA32C0800CD01C2
:100960004D08313E84000008BC247824CD0A4D088F
:100970000C3C031DB02C080083160313981CBE2CDE
:100980008312031399000800F930F0000000F00B07
:10099000C62C0800F100C424F10BCB2C080008156C
:1009A000C42408110800F500F0398800F4188814F0
:1009B000CF24F50E7508F0398800F4188814CF2478
:1009C00008006430CA24F030F40030308800CF24AE
:1009D0000530CA24CF24C424CF240812CF242830C1
:1009E000D3240830D3240130D3240630D3248030DC
:0809F000D3240C30D3240800CD
:02400E00313748
:00000001FF
