:020000040000FA
:020000000528D1
:040002000034003492
:080008002228000083160313F7
:10001000871707134F20831203138801622083126E
:1000200003130B178B17831203133E181820132882
:1000300083120313BE019620C12083120313812073
:10004000DF210800A000831203138C1E4D288312A9
:1000500003131A08A1002308003C031930283F2885
:100060002208243E840021088000A20A22080C3CB9
:10007000031D4D280130BC00A201A30A4D2822080F
:10008000303E840021088000A20A22080C3C031D97
:100090004D280130BD000130BE0020080900831644
:1000A000031319309900831603131812981683123C
:1000B000031398171816831603138C168312031351
:1000C0008C120800A201A301A401A501A601A701A9
:1000D000A801A901AA01AB01AC01AD01AE01AF01BC
:1000E000B001B101B201B301B401B501B601B7016C
:1000F000B801B901BA01BB01BC01BD01BE01EF01EC
:100100000800EF016F085E3E840000088E20D121B8
:10011000EF0A6F080C3C031D8228080083160313A6
:10012000981C902883120313990008002408BF002C
:100130002508C0002608C1002708C2002808C300FF
:100140002908C4002A08C5002B08C6002C08C700CF
:100150002D08C8002E08C9002F08CA00CB01CC0109
:10016000CD01CE01CF01D001DE01DF01E001E101CF
:10017000E201E301E401E501E601E701E801E9014B
:100180000800D101D201D301D401D501D601D70194
:10019000D801D901DA01DB01DC01DD011230EB000D
:1001A0003F30EC005E30ED005208D1005308D20021
:1001B0005408D3005508D4005608D5005708D60077
:1001C0005808D7005908D8005A08D9005B08DA0047
:1001D0005C08DB005D08DC006C0884000008DD00C2
:1001E000EC0AEE0104216A1CF8283B21EE0AF228F1
:1001F0000D306B02031801296D0884006E08800021
:10020000ED0AEB0BD4280800EA01510803190A296A
:100210006A14080030085202031D382931085302BD
:10022000031D382932085402031D382933085502AA
:10023000031D382934085602031D38293508570292
:10024000031D382936085802031D3829370859027A
:10025000031D382938085A02031D382939085B0262
:10026000031D38293A085C02031D38293B085D024A
:1002700003186A1408003B08DD02031842290A30FB
:10028000DD0790213A08DC02031849290A30DC070F
:1002900095213908DB02031850290A30DB079A211F
:1002A0003808DA02031857290A30DA079F2137087D
:1002B000D90203185E290A30D907A4213608D802CA
:1002C000031865290A30D807A9213508D702031871
:1002D0006C290A30D707AE213408D60203187329D7
:1002E0000A30D607B3213308D50203187A290A3019
:1002F000D507B8213208D402031881290A30D4075F
:10030000BD213108D302031888290A30D307C2213E
:100310003008D202031808000A30D207C7210800AB
:10032000DC03DC1F08000930DC00DB03DB1F0800F6
:100330000930DB00DA03DA1F08000930DA00D903DC
:10034000D91F08000930D900D803D81F0800093088
:10035000D800D703D71F08000930D700D603D61F0F
:1003600008000930D600D503D51F08000930D50094
:10037000D403D41F08000930D400D303D31F0800CE
:100380000930D300D203D21F08000930D200D103B4
:100390000800FA30D721FA30D72108001430D721CD
:1003A00008000530D72108000130D7210800F000EF
:1003B000C730A000A00BDA29F00BD8290800A20151
:1003C000A301BC01BD01BE01A401A501A601A701B5
:1003D000A801A901AA01AB01AC01AD01AE01AF01B9
:1003E000B001B101B201B301B401B501B601B70169
:0A03F000B801B901BA01BB01080011
:02400E00313748
:00000001FF
